{
  "contractName": "BatchedPermissionContract",
  "abi": [
    {
      "inputs": [],
      "payable": false,
      "stateMutability": "nonpayable",
      "type": "constructor"
    },
    {
      "anonymous": false,
      "inputs": [
        {
          "indexed": true,
          "internalType": "address",
          "name": "_buyer",
          "type": "address"
        }
      ],
      "name": "BuyFailed",
      "type": "event"
    },
    {
      "anonymous": false,
      "inputs": [
        {
          "indexed": true,
          "internalType": "address",
          "name": "_buyer",
          "type": "address"
        }
      ],
      "name": "BuySuccessful",
      "type": "event"
    },
    {
      "anonymous": false,
      "inputs": [
        {
          "indexed": true,
          "internalType": "address",
          "name": "_spender",
          "type": "address"
        }
      ],
      "name": "OrderApproved",
      "type": "event"
    },
    {
      "anonymous": false,
      "inputs": [
        {
          "indexed": true,
          "internalType": "address",
          "name": "_spender",
          "type": "address"
        }
      ],
      "name": "OrderCreated",
      "type": "event"
    },
    {
      "anonymous": false,
      "inputs": [
        {
          "indexed": true,
          "internalType": "address",
          "name": "_spender",
          "type": "address"
        }
      ],
      "name": "OrderDenied",
      "type": "event"
    },
    {
      "anonymous": false,
      "inputs": [
        {
          "indexed": true,
          "internalType": "address",
          "name": "_resolver",
          "type": "address"
        }
      ],
      "name": "OrderWaitingForApproval",
      "type": "event"
    },
    {
      "anonymous": false,
      "inputs": [
        {
          "indexed": true,
          "internalType": "address",
          "name": "_buyer",
          "type": "address"
        }
      ],
      "name": "SellFailed",
      "type": "event"
    },
    {
      "anonymous": false,
      "inputs": [
        {
          "indexed": true,
          "internalType": "address",
          "name": "_buyer",
          "type": "address"
        }
      ],
      "name": "SellSuccessful",
      "type": "event"
    },
    {
      "constant": true,
      "inputs": [],
      "name": "getName",
      "outputs": [
        {
          "internalType": "string",
          "name": "tokenName",
          "type": "string"
        }
      ],
      "payable": false,
      "stateMutability": "view",
      "type": "function"
    },
    {
      "constant": true,
      "inputs": [],
      "name": "getSymbol",
      "outputs": [
        {
          "internalType": "string",
          "name": "tokenSymbol",
          "type": "string"
        }
      ],
      "payable": false,
      "stateMutability": "view",
      "type": "function"
    },
    {
      "constant": true,
      "inputs": [],
      "name": "getDecimals",
      "outputs": [
        {
          "internalType": "uint256",
          "name": "tokenDecimals",
          "type": "uint256"
        }
      ],
      "payable": false,
      "stateMutability": "view",
      "type": "function"
    },
    {
      "constant": true,
      "inputs": [
        {
          "internalType": "address",
          "name": "_nodeAddress",
          "type": "address"
        }
      ],
      "name": "getAuthStatus",
      "outputs": [
        {
          "internalType": "bool",
          "name": "status",
          "type": "bool"
        }
      ],
      "payable": false,
      "stateMutability": "view",
      "type": "function"
    },
    {
      "constant": true,
      "inputs": [],
      "name": "getContractbalance",
      "outputs": [
        {
          "internalType": "uint256",
          "name": "balance",
          "type": "uint256"
        }
      ],
      "payable": false,
      "stateMutability": "view",
      "type": "function"
    },
    {
      "constant": false,
      "inputs": [
        {
          "internalType": "address",
          "name": "authServiceAddress",
          "type": "address"
        }
      ],
      "name": "setAuthService",
      "outputs": [],
      "payable": false,
      "stateMutability": "nonpayable",
      "type": "function"
    },
    {
      "constant": true,
      "inputs": [
        {
          "internalType": "address",
          "name": "_nodeAddress",
          "type": "address"
        }
      ],
      "name": "nodeAuthorized",
      "outputs": [
        {
          "internalType": "bool",
          "name": "authorized",
          "type": "bool"
        }
      ],
      "payable": false,
      "stateMutability": "view",
      "type": "function"
    },
    {
      "constant": false,
      "inputs": [],
      "name": "askPermission",
      "outputs": [],
      "payable": false,
      "stateMutability": "nonpayable",
      "type": "function"
    },
    {
      "constant": false,
      "inputs": [
        {
          "internalType": "address",
          "name": "_spender",
          "type": "address"
        }
      ],
      "name": "permissionResolved",
      "outputs": [],
      "payable": false,
      "stateMutability": "nonpayable",
      "type": "function"
    },
    {
      "constant": false,
      "inputs": [
        {
          "internalType": "address",
          "name": "_spender",
          "type": "address"
        }
      ],
      "name": "denyPermisson",
      "outputs": [],
      "payable": false,
      "stateMutability": "nonpayable",
      "type": "function"
    },
    {
      "constant": false,
      "inputs": [
        {
          "internalType": "uint256",
          "name": "numberOfTokens",
          "type": "uint256"
        }
      ],
      "name": "buyTokens",
      "outputs": [],
      "payable": true,
      "stateMutability": "payable",
      "type": "function"
    },
    {
      "constant": false,
      "inputs": [
        {
          "internalType": "uint256",
          "name": "numberOfTokens",
          "type": "uint256"
        }
      ],
      "name": "sellTokens",
      "outputs": [],
      "payable": true,
      "stateMutability": "payable",
      "type": "function"
    }
  ],
  "bytecode": "0x60806040526000600260016101000a81548173ffffffffffffffffffffffffffffffffffffffff021916908373ffffffffffffffffffffffffffffffffffffffff1602179055506000600360006101000a81548173ffffffffffffffffffffffffffffffffffffffff021916908373ffffffffffffffffffffffffffffffffffffffff1602179055503480156200009557600080fd5b506040518060400160405280601981526020017f426174636865645065726d697373696f6e436f6e74726163740000000000000081525060009080519060200190620000e392919062000195565b506040518060400160405280600381526020017f4250430000000000000000000000000000000000000000000000000000000000815250600190805190602001906200013192919062000195565b506000600260006101000a81548160ff021916908360ff16021790555033600360006101000a81548173ffffffffffffffffffffffffffffffffffffffff021916908373ffffffffffffffffffffffffffffffffffffffff16021790555062000244565b828054600181600116156101000203166002900490600052602060002090601f016020900481019282601f10620001d857805160ff191683800117855562000209565b8280016001018555821562000209579182015b8281111562000208578251825591602001919060010190620001eb565b5b5090506200021891906200021c565b5090565b6200024191905b808211156200023d57600081600090555060010162000223565b5090565b90565b61141880620002546000396000f3fe6080604052600436106100a75760003560e01c80635ab51661116100645780635ab51661146102df5780636c11bcd314610330578063957844211461035e578063ab4531b3146103c7578063f0141d84146103de578063fc4e61fc14610409576100a7565b806314bde88e146100ac578063150704011461011557806317d7de7c146101a5578063293e8e741461023557806334097bc0146102865780633610724e146102b1575b600080fd5b3480156100b857600080fd5b506100fb600480360360208110156100cf57600080fd5b81019080803573ffffffffffffffffffffffffffffffffffffffff16906020019092919050505061045a565b604051808215151515815260200191505060405180910390f35b34801561012157600080fd5b5061012a6104b0565b6040518080602001828103825283818151815260200191508051906020019080838360005b8381101561016a57808201518184015260208101905061014f565b50505050905090810190601f1680156101975780820380516001836020036101000a031916815260200191505b509250505060405180910390f35b3480156101b157600080fd5b506101ba610552565b6040518080602001828103825283818151815260200191508051906020019080838360005b838110156101fa5780820151818401526020810190506101df565b50505050905090810190601f1680156102275780820380516001836020036101000a031916815260200191505b509250505060405180910390f35b34801561024157600080fd5b506102846004803603602081101561025857600080fd5b81019080803573ffffffffffffffffffffffffffffffffffffffff1690602001909291905050506105f4565b005b34801561029257600080fd5b5061029b610692565b6040518082815260200191505060405180910390f35b6102dd600480360360208110156102c757600080fd5b81019080803590602001909291905050506106d9565b005b3480156102eb57600080fd5b5061032e6004803603602081101561030257600080fd5b81019080803573ffffffffffffffffffffffffffffffffffffffff169060200190929190505050610832565b005b61035c6004803603602081101561034657600080fd5b8101908080359060200190929190505050610af4565b005b34801561036a57600080fd5b506103ad6004803603602081101561038157600080fd5b81019080803573ffffffffffffffffffffffffffffffffffffffff169060200190929190505050610cbb565b604051808215151515815260200191505060405180910390f35b3480156103d357600080fd5b506103dc610d9e565b005b3480156103ea57600080fd5b506103f3611128565b6040518082815260200191505060405180910390f35b34801561041557600080fd5b506104586004803603602081101561042c57600080fd5b81019080803573ffffffffffffffffffffffffffffffffffffffff169060200190929190505050611142565b005b6000600660008373ffffffffffffffffffffffffffffffffffffffff1673ffffffffffffffffffffffffffffffffffffffff16815260200190815260200160002060009054906101000a900460ff169050919050565b606060018054600181600116156101000203166002900480601f0160208091040260200160405190810160405280929190818152602001828054600181600116156101000203166002900480156105485780601f1061051d57610100808354040283529160200191610548565b820191906000526020600020905b81548152906001019060200180831161052b57829003601f168201915b5050505050905090565b606060008054600181600116156101000203166002900480601f0160208091040260200160405190810160405280929190818152602001828054600181600116156101000203166002900480156105ea5780601f106105bf576101008083540402835291602001916105ea565b820191906000526020600020905b8154815290600101906020018083116105cd57829003601f168201915b5050505050905090565b600360009054906101000a900473ffffffffffffffffffffffffffffffffffffffff1673ffffffffffffffffffffffffffffffffffffffff163373ffffffffffffffffffffffffffffffffffffffff161461064e57600080fd5b80600260016101000a81548173ffffffffffffffffffffffffffffffffffffffff021916908373ffffffffffffffffffffffffffffffffffffffff16021790555050565b6000600460003073ffffffffffffffffffffffffffffffffffffffff1673ffffffffffffffffffffffffffffffffffffffff16815260200190815260200160002054905090565b6000341180156106e95750600081115b6106f257600080fd5b60006001820290503481116107eb5781600460003373ffffffffffffffffffffffffffffffffffffffff1673ffffffffffffffffffffffffffffffffffffffff168152602001908152602001600020600082825401925050819055503373ffffffffffffffffffffffffffffffffffffffff167fc3cf9281f9f7a33a45d6cf4d04cc374ac2fbc0c812bbfeb97845dfaed96aba6160405160405180910390a26000813403905060008111156107e9573373ffffffffffffffffffffffffffffffffffffffff166108fc829081150290604051600060405180830381858888f193505050501580156107e7573d6000803e3d6000fd5b505b505b3373ffffffffffffffffffffffffffffffffffffffff167fb16ad23a3ce24a6622d929ea1db29f1b78de6b8462f5d55deec0982e5a70064660405160405180910390a25050565b61083b33610cbb565b610890576040517f08c379a000000000000000000000000000000000000000000000000000000000815260040180806020018281038252603281526020018061137e6032913960400191505060405180910390fd5b600560008273ffffffffffffffffffffffffffffffffffffffff1673ffffffffffffffffffffffffffffffffffffffff16815260200190815260200160002060009054906101000a900460ff1615610af1576001600460003073ffffffffffffffffffffffffffffffffffffffff1673ffffffffffffffffffffffffffffffffffffffff168152602001908152602001600020600082825403925050819055506001600460008373ffffffffffffffffffffffffffffffffffffffff1673ffffffffffffffffffffffffffffffffffffffff168152602001908152602001600020600082825401925050819055506000600560008373ffffffffffffffffffffffffffffffffffffffff1673ffffffffffffffffffffffffffffffffffffffff16815260200190815260200160002060006101000a81548160ff02191690831515021790555060405180604001604052806000151581526020013373ffffffffffffffffffffffffffffffffffffffff16815250600760008373ffffffffffffffffffffffffffffffffffffffff1673ffffffffffffffffffffffffffffffffffffffff16815260200190815260200160002060008201518160000160006101000a81548160ff02191690831515021790555060208201518160000160016101000a81548173ffffffffffffffffffffffffffffffffffffffff021916908373ffffffffffffffffffffffffffffffffffffffff1602179055509050508073ffffffffffffffffffffffffffffffffffffffff167fbefad37f7035c8f9d84cf9c79d0814b502a13569bbc0327eae4d239ae4aea95160405160405180910390a25b50565b60008111610b0157600080fd5b6000819050600460003373ffffffffffffffffffffffffffffffffffffffff1673ffffffffffffffffffffffffffffffffffffffff16815260200190815260200160002054821115610b9057600460003373ffffffffffffffffffffffffffffffffffffffff1673ffffffffffffffffffffffffffffffffffffffff1681526020019081526020016000205490505b6000811115610c74573373ffffffffffffffffffffffffffffffffffffffff166108fc600183029081150290604051600060405180830381858888f19350505050158015610be2573d6000803e3d6000fd5b5080600460003373ffffffffffffffffffffffffffffffffffffffff1673ffffffffffffffffffffffffffffffffffffffff168152602001908152602001600020600082825403925050819055503373ffffffffffffffffffffffffffffffffffffffff167f6a185ab31023a36adc1520fb20ef3518c4341996f4d09a41e6dce5b0d9794b6660405160405180910390a25b3373ffffffffffffffffffffffffffffffffffffffff167f9bc4395a81d9bd3ebff5bd1a2957a5296e6c5fbd33b4b261ca40f4ad39d7367a60405160405180910390a25050565b6000600260019054906101000a900473ffffffffffffffffffffffffffffffffffffffff1673ffffffffffffffffffffffffffffffffffffffff1663ebdeafc9836040518263ffffffff1660e01b8152600401808273ffffffffffffffffffffffffffffffffffffffff1673ffffffffffffffffffffffffffffffffffffffff16815260200191505060206040518083038186803b158015610d5c57600080fd5b505afa158015610d70573d6000803e3d6000fd5b505050506040513d6020811015610d8657600080fd5b81019080805190602001909291905050509050919050565b6000600460003373ffffffffffffffffffffffffffffffffffffffff1673ffffffffffffffffffffffffffffffffffffffff1681526020019081526020016000205411610e36576040517f08c379a00000000000000000000000000000000000000000000000000000000081526004018080602001828103825260348152602001806113b06034913960400191505060405180910390fd5b6001600460003373ffffffffffffffffffffffffffffffffffffffff1673ffffffffffffffffffffffffffffffffffffffff168152602001908152602001600020600082825403925050819055506001600460003073ffffffffffffffffffffffffffffffffffffffff1673ffffffffffffffffffffffffffffffffffffffff168152602001908152602001600020600082825401925050819055506001600560003373ffffffffffffffffffffffffffffffffffffffff1673ffffffffffffffffffffffffffffffffffffffff16815260200190815260200160002060006101000a81548160ff0219169083151502179055506000600660003373ffffffffffffffffffffffffffffffffffffffff1673ffffffffffffffffffffffffffffffffffffffff16815260200190815260200160002060006101000a81548160ff021916908315150217905550600760003373ffffffffffffffffffffffffffffffffffffffff1673ffffffffffffffffffffffffffffffffffffffff16815260200190815260200160002060000160009054906101000a900460ff16156110e357600160046000600760003373ffffffffffffffffffffffffffffffffffffffff1673ffffffffffffffffffffffffffffffffffffffff16815260200190815260200160002060000160019054906101000a900473ffffffffffffffffffffffffffffffffffffffff1673ffffffffffffffffffffffffffffffffffffffff1673ffffffffffffffffffffffffffffffffffffffff168152602001908152602001600020600082825401925050819055506000600760003373ffffffffffffffffffffffffffffffffffffffff1673ffffffffffffffffffffffffffffffffffffffff16815260200190815260200160002060000160006101000a81548160ff0219169083151502179055505b3373ffffffffffffffffffffffffffffffffffffffff167fed94e6f8f334678b3265725f268ecd9032016d6050efeb9e673a561ffbfb0a7660405160405180910390a2565b6000600260009054906101000a900460ff1660ff16905090565b61114b33610cbb565b6111a0576040517f08c379a000000000000000000000000000000000000000000000000000000000815260040180806020018281038252603281526020018061137e6032913960400191505060405180910390fd5b600560008273ffffffffffffffffffffffffffffffffffffffff1673ffffffffffffffffffffffffffffffffffffffff16815260200190815260200160002060009054906101000a900460ff161561137a576001600660003373ffffffffffffffffffffffffffffffffffffffff1673ffffffffffffffffffffffffffffffffffffffff16815260200190815260200160002060006101000a81548160ff0219169083151502179055506000600560008373ffffffffffffffffffffffffffffffffffffffff1673ffffffffffffffffffffffffffffffffffffffff16815260200190815260200160002060006101000a81548160ff02191690831515021790555060405180604001604052806001151581526020013373ffffffffffffffffffffffffffffffffffffffff16815250600760008373ffffffffffffffffffffffffffffffffffffffff1673ffffffffffffffffffffffffffffffffffffffff16815260200190815260200160002060008201518160000160006101000a81548160ff02191690831515021790555060208201518160000160016101000a81548173ffffffffffffffffffffffffffffffffffffffff021916908373ffffffffffffffffffffffffffffffffffffffff1602179055509050505b5056fe4e6f6465206973206e6f7420617574686f72697a656420746f20706572666f726d2061757468656e74696669636174696f6e4f6e6c79207573657220776974682062616c616e63652067726561746572207468616e20302063616e2063616c6c20746869732ea265627a7a7231582047813cdff4f97d53aa5b4d1c8b0fc64231cedba6b6ee70ca9d27230134ea350164736f6c63430005100032",
  "source": "// SPDX-License-Identifier: GPL-3.0\npragma solidity >=0.4.22 <0.9.0;\n\ninterface IAuthContract {\n    function getNodeAuthStatus(address _owner) external view returns (bool authentificated);\n}\n\ncontract BatchedPermissionContract {\n    struct ApprovalAwait {\n        bool awaiting;\n        address resolverAddress;\n    }\n\n    string private name;\n    string private symbol;\n    uint8 private decimals;\n\n    address private authService = 0x0000000000000000000000000000000000000000;\n    address private owner = 0x0000000000000000000000000000000000000000;\n\n    uint256 private constant TOKEN_PRICE = 1 wei; // 1 kB\n\n    mapping(address => uint256) userBalance;\n\n    mapping(address => bool) awaitingPermission;\n\n    mapping(address => bool) authStatus;\n\n    mapping(address => ApprovalAwait) awaitingApproved;\n\n    constructor() public {\n        name = \"BatchedPermissionContract\";\n        symbol = \"BPC\";\n        decimals = 0;\n        owner = msg.sender;\n    }\n\n    modifier onlyOwner() {\n        require(\n            msg.sender == owner,\n            \"Only contract owner can call this.\"\n        );\n        _;\n    }\n\n    modifier userWithBalance() {\n        require(\n            userBalance[msg.sender] > 0,\n            \"Only user with balance greater than 0 can call this.\"\n        );\n        _;\n    }\n\n    function getName() public view returns (string memory tokenName){\n        return name;\n    }\n\n    function getSymbol() public view returns (string memory tokenSymbol){\n        return symbol;\n    }\n\n    function getDecimals() public view returns (uint tokenDecimals){\n        return decimals;\n    }\n\n    function getAuthStatus(address _nodeAddress) public view returns (bool status){\n        return authStatus[_nodeAddress];\n    }\n\n    function getContractbalance() public view returns (uint256 balance){\n        return userBalance[address(this)];\n    }\n\n    function setAuthService(address authServiceAddress) public {\n        require(msg.sender == owner);\n        authService = authServiceAddress;\n    }\n\n    function nodeAuthorized(address _nodeAddress) public view returns (bool authorized){\n        return IAuthContract(authService).getNodeAuthStatus(_nodeAddress);\n    }\n\n    function askPermission() public userWithBalance {\n        userBalance[msg.sender] -= 1;\n        userBalance[address(this)] += 1;\n        awaitingPermission[msg.sender] = true;\n\n        authStatus[msg.sender] = false;\n\n        if(awaitingApproved[msg.sender].awaiting){\n            userBalance[awaitingApproved[msg.sender].resolverAddress] += 1;\n            awaitingApproved[msg.sender].awaiting = false;\n        }\n\n        emit OrderCreated(msg.sender);\n    }\n\n    function permissionResolved(address _spender) public {\n        require(nodeAuthorized(msg.sender), \"Node is not authorized to perform authentification\");\n\n        if(awaitingPermission[_spender]){\n            authStatus[msg.sender] = true;\n            awaitingPermission[_spender] = false;\n            awaitingApproved[_spender] = ApprovalAwait(true, msg.sender);\n        }\n    }\n\n    function denyPermisson(address _spender) public {\n        require(nodeAuthorized(msg.sender), \"Node is not authorized to perform authentification\");\n        if(awaitingPermission[_spender]){\n            userBalance[address(this)] -= 1;\n            userBalance[_spender] += 1;\n            awaitingPermission[_spender] = false;\n            awaitingApproved[_spender] = ApprovalAwait(false, msg.sender);\n            emit OrderDenied(_spender);\n        }\n    }\n\n    function buyTokens(uint numberOfTokens) external payable {\n        require(msg.value > 0 && numberOfTokens > 0);\n\n        uint256  finalPrice = numberOfTokens * TOKEN_PRICE;\n\n        if(finalPrice <= msg.value){\n            userBalance[msg.sender] += numberOfTokens;\n            emit BuySuccessful(msg.sender);\n            uint256 toReturn = msg.value - finalPrice;\n            if(toReturn > 0){\n                address(msg.sender).transfer(toReturn);\n            }\n        }\n        emit BuyFailed(msg.sender);\n    }\n\n    function sellTokens(uint numberOfTokens) external payable {\n        require(numberOfTokens > 0);\n\n        uint256 finalAmount = numberOfTokens;\n\n        if(numberOfTokens > userBalance[msg.sender]){\n            finalAmount = userBalance[msg.sender];\n        }\n\n        if(finalAmount > 0){\n            address(msg.sender).transfer(finalAmount * TOKEN_PRICE);\n            userBalance[msg.sender] -= finalAmount;\n            emit SellSuccessful(msg.sender);\n        }\n        emit SellFailed(msg.sender);\n    }\n\n    event OrderCreated(address indexed _spender);\n    event OrderWaitingForApproval(address indexed _resolver);\n    event OrderApproved(address indexed _spender);\n    event OrderDenied(address indexed _spender);\n    event BuySuccessful(address indexed _buyer);\n    event BuyFailed(address indexed _buyer);\n    event SellSuccessful(address indexed _buyer);\n    event SellFailed(address indexed _buyer);\n}\n",
  "sourcePath": "/Users/pavoltelepak/Diplomovka/blockchain/truffle/contracts/BatchedPermissionContract.sol",
  "compiler": {
    "name": "solc",
    "version": "0.5.16+commit.9c3226ce.Emscripten.clang"
  },
  "schemaVersion": "3.4.4",
  "updatedAt": "2022-03-30T11:52:13.768Z",
  "networkType": "ethereum",
  "devdoc": {
    "methods": {}
  },
  "userdoc": {
    "methods": {}
  }
}