{
  "contractName": "BatchedPermissionContract",
  "abi": [
    {
      "inputs": [],
      "payable": false,
      "stateMutability": "nonpayable",
      "type": "constructor"
    },
    {
      "anonymous": false,
      "inputs": [
        {
          "indexed": true,
          "internalType": "address",
          "name": "_buyer",
          "type": "address"
        }
      ],
      "name": "BuyFailed",
      "type": "event"
    },
    {
      "anonymous": false,
      "inputs": [
        {
          "indexed": true,
          "internalType": "address",
          "name": "_buyer",
          "type": "address"
        }
      ],
      "name": "BuySuccessful",
      "type": "event"
    },
    {
      "anonymous": false,
      "inputs": [
        {
          "indexed": true,
          "internalType": "address",
          "name": "_spender",
          "type": "address"
        }
      ],
      "name": "OrderApproved",
      "type": "event"
    },
    {
      "anonymous": false,
      "inputs": [
        {
          "indexed": true,
          "internalType": "address",
          "name": "_spender",
          "type": "address"
        }
      ],
      "name": "OrderCreated",
      "type": "event"
    },
    {
      "anonymous": false,
      "inputs": [
        {
          "indexed": true,
          "internalType": "address",
          "name": "_spender",
          "type": "address"
        }
      ],
      "name": "OrderDenied",
      "type": "event"
    },
    {
      "anonymous": false,
      "inputs": [
        {
          "indexed": true,
          "internalType": "address",
          "name": "_resolver",
          "type": "address"
        }
      ],
      "name": "OrderWaitingForApproval",
      "type": "event"
    },
    {
      "anonymous": false,
      "inputs": [
        {
          "indexed": true,
          "internalType": "address",
          "name": "_buyer",
          "type": "address"
        }
      ],
      "name": "SellFailed",
      "type": "event"
    },
    {
      "anonymous": false,
      "inputs": [
        {
          "indexed": true,
          "internalType": "address",
          "name": "_buyer",
          "type": "address"
        }
      ],
      "name": "SellSuccessful",
      "type": "event"
    },
    {
      "constant": true,
      "inputs": [],
      "name": "getName",
      "outputs": [
        {
          "internalType": "string",
          "name": "tokenName",
          "type": "string"
        }
      ],
      "payable": false,
      "stateMutability": "view",
      "type": "function"
    },
    {
      "constant": true,
      "inputs": [],
      "name": "getSymbol",
      "outputs": [
        {
          "internalType": "string",
          "name": "tokenSymbol",
          "type": "string"
        }
      ],
      "payable": false,
      "stateMutability": "view",
      "type": "function"
    },
    {
      "constant": true,
      "inputs": [],
      "name": "getDecimals",
      "outputs": [
        {
          "internalType": "uint256",
          "name": "tokenDecimals",
          "type": "uint256"
        }
      ],
      "payable": false,
      "stateMutability": "view",
      "type": "function"
    },
    {
      "constant": true,
      "inputs": [],
      "name": "getContractbalance",
      "outputs": [
        {
          "internalType": "uint256",
          "name": "balance",
          "type": "uint256"
        }
      ],
      "payable": false,
      "stateMutability": "view",
      "type": "function"
    },
    {
      "constant": true,
      "inputs": [],
      "name": "getBalance",
      "outputs": [
        {
          "internalType": "uint256",
          "name": "balance",
          "type": "uint256"
        }
      ],
      "payable": false,
      "stateMutability": "view",
      "type": "function"
    },
    {
      "constant": false,
      "inputs": [],
      "name": "askPermission",
      "outputs": [],
      "payable": false,
      "stateMutability": "nonpayable",
      "type": "function"
    },
    {
      "constant": false,
      "inputs": [
        {
          "internalType": "address",
          "name": "_spender",
          "type": "address"
        }
      ],
      "name": "permissionResolved",
      "outputs": [],
      "payable": false,
      "stateMutability": "nonpayable",
      "type": "function"
    },
    {
      "constant": false,
      "inputs": [
        {
          "internalType": "address",
          "name": "_spender",
          "type": "address"
        }
      ],
      "name": "denyPermisson",
      "outputs": [],
      "payable": false,
      "stateMutability": "nonpayable",
      "type": "function"
    },
    {
      "constant": false,
      "inputs": [
        {
          "internalType": "uint256",
          "name": "numberOfTokens",
          "type": "uint256"
        }
      ],
      "name": "buyTokens",
      "outputs": [],
      "payable": true,
      "stateMutability": "payable",
      "type": "function"
    },
    {
      "constant": false,
      "inputs": [
        {
          "internalType": "uint256",
          "name": "numberOfTokens",
          "type": "uint256"
        }
      ],
      "name": "sellTokens",
      "outputs": [],
      "payable": true,
      "stateMutability": "payable",
      "type": "function"
    }
  ],
  "bytecode": "0x60806040523480156200001157600080fd5b506040518060400160405280601981526020017f426174636865645065726d697373696f6e434f6e747261637400000000000000815250600090805190602001906200005f92919062000111565b506040518060400160405280600581526020017f417574685300000000000000000000000000000000000000000000000000000081525060019080519060200190620000ad92919062000111565b506000600260006101000a81548160ff021916908360ff16021790555033600260016101000a81548173ffffffffffffffffffffffffffffffffffffffff021916908373ffffffffffffffffffffffffffffffffffffffff160217905550620001c0565b828054600181600116156101000203166002900490600052602060002090601f016020900481019282601f106200015457805160ff191683800117855562000185565b8280016001018555821562000185579182015b828111156200018457825182559160200191906001019062000167565b5b50905062000194919062000198565b5090565b620001bd91905b80821115620001b95760008160009055506001016200019f565b5090565b90565b61108780620001d06000396000f3fe6080604052600436106100915760003560e01c80635ab51661116100595780635ab516611461023a5780636c11bcd31461028b578063ab4531b3146102b9578063f0141d84146102d0578063fc4e61fc146102fb57610091565b806312065fe01461009657806315070401146100c157806317d7de7c1461015157806334097bc0146101e15780633610724e1461020c575b600080fd5b3480156100a257600080fd5b506100ab61034c565b6040518082815260200191505060405180910390f35b3480156100cd57600080fd5b506100d6610393565b6040518080602001828103825283818151815260200191508051906020019080838360005b838110156101165780820151818401526020810190506100fb565b50505050905090810190601f1680156101435780820380516001836020036101000a031916815260200191505b509250505060405180910390f35b34801561015d57600080fd5b50610166610435565b6040518080602001828103825283818151815260200191508051906020019080838360005b838110156101a657808201518184015260208101905061018b565b50505050905090810190601f1680156101d35780820380516001836020036101000a031916815260200191505b509250505060405180910390f35b3480156101ed57600080fd5b506101f66104d7565b6040518082815260200191505060405180910390f35b6102386004803603602081101561022257600080fd5b810190808035906020019092919050505061051e565b005b34801561024657600080fd5b506102896004803603602081101561025d57600080fd5b81019080803573ffffffffffffffffffffffffffffffffffffffff169060200190929190505050610716565b005b6102b7600480360360208110156102a157600080fd5b810190808035906020019092919050505061097a565b005b3480156102c557600080fd5b506102ce610b4d565b005b3480156102dc57600080fd5b506102e5610e7f565b6040518082815260200191505060405180910390f35b34801561030757600080fd5b5061034a6004803603602081101561031e57600080fd5b81019080803573ffffffffffffffffffffffffffffffffffffffff169060200190929190505050610e99565b005b6000600360003373ffffffffffffffffffffffffffffffffffffffff1673ffffffffffffffffffffffffffffffffffffffff16815260200190815260200160002054905090565b606060018054600181600116156101000203166002900480601f01602080910402602001604051908101604052809291908181526020018280546001816001161561010002031660029004801561042b5780601f106104005761010080835404028352916020019161042b565b820191906000526020600020905b81548152906001019060200180831161040e57829003601f168201915b5050505050905090565b606060008054600181600116156101000203166002900480601f0160208091040260200160405190810160405280929190818152602001828054600181600116156101000203166002900480156104cd5780601f106104a2576101008083540402835291602001916104cd565b820191906000526020600020905b8154815290600101906020018083116104b057829003601f168201915b5050505050905090565b6000600360003073ffffffffffffffffffffffffffffffffffffffff1673ffffffffffffffffffffffffffffffffffffffff16815260200190815260200160002054905090565b60003411801561052e5750600081115b61053757600080fd5b6000819050631dcd650082600360003373ffffffffffffffffffffffffffffffffffffffff1673ffffffffffffffffffffffffffffffffffffffff168152602001908152602001600020540111156105d257600360003373ffffffffffffffffffffffffffffffffffffffff1673ffffffffffffffffffffffffffffffffffffffff16815260200190815260200160002054631dcd65000390505b60006001820290503481116106cd5760008134031115610636573373ffffffffffffffffffffffffffffffffffffffff166108fc8234039081150290604051600060405180830381858888f19350505050158015610634573d6000803e3d6000fd5b505b81600360003373ffffffffffffffffffffffffffffffffffffffff1673ffffffffffffffffffffffffffffffffffffffff168152602001908152602001600020600082825401925050819055503373ffffffffffffffffffffffffffffffffffffffff167fc3cf9281f9f7a33a45d6cf4d04cc374ac2fbc0c812bbfeb97845dfaed96aba6160405160405180910390a25050610713565b3373ffffffffffffffffffffffffffffffffffffffff167fb16ad23a3ce24a6622d929ea1db29f1b78de6b8462f5d55deec0982e5a70064660405160405180910390a250505b50565b600460008273ffffffffffffffffffffffffffffffffffffffff1673ffffffffffffffffffffffffffffffffffffffff16815260200190815260200160002060009054906101000a900460ff1615610977576001600360003073ffffffffffffffffffffffffffffffffffffffff1673ffffffffffffffffffffffffffffffffffffffff168152602001908152602001600020600082825403925050819055506001600360008373ffffffffffffffffffffffffffffffffffffffff1673ffffffffffffffffffffffffffffffffffffffff168152602001908152602001600020600082825401925050819055506000600460008373ffffffffffffffffffffffffffffffffffffffff1673ffffffffffffffffffffffffffffffffffffffff16815260200190815260200160002060006101000a81548160ff02191690831515021790555060405180604001604052806000151581526020013373ffffffffffffffffffffffffffffffffffffffff16815250600560008373ffffffffffffffffffffffffffffffffffffffff1673ffffffffffffffffffffffffffffffffffffffff16815260200190815260200160002060008201518160000160006101000a81548160ff02191690831515021790555060208201518160000160016101000a81548173ffffffffffffffffffffffffffffffffffffffff021916908373ffffffffffffffffffffffffffffffffffffffff1602179055509050508073ffffffffffffffffffffffffffffffffffffffff167fbefad37f7035c8f9d84cf9c79d0814b502a13569bbc0327eae4d239ae4aea95160405160405180910390a25b50565b6000811161098757600080fd5b6000819050600360003373ffffffffffffffffffffffffffffffffffffffff1673ffffffffffffffffffffffffffffffffffffffff16815260200190815260200160002054821115610a1657600360003373ffffffffffffffffffffffffffffffffffffffff1673ffffffffffffffffffffffffffffffffffffffff1681526020019081526020016000205490505b6000811115610b055760006001820290503373ffffffffffffffffffffffffffffffffffffffff166108fc829081150290604051600060405180830381858888f19350505050158015610a6d573d6000803e3d6000fd5b5081600360003373ffffffffffffffffffffffffffffffffffffffff1673ffffffffffffffffffffffffffffffffffffffff168152602001908152602001600020600082825403925050819055503373ffffffffffffffffffffffffffffffffffffffff167f6a185ab31023a36adc1520fb20ef3518c4341996f4d09a41e6dce5b0d9794b6660405160405180910390a25050610b4a565b3373ffffffffffffffffffffffffffffffffffffffff167f9bc4395a81d9bd3ebff5bd1a2957a5296e6c5fbd33b4b261ca40f4ad39d7367a60405160405180910390a2505b50565b6000600360003373ffffffffffffffffffffffffffffffffffffffff1673ffffffffffffffffffffffffffffffffffffffff1681526020019081526020016000205411610be5576040517f08c379a000000000000000000000000000000000000000000000000000000000815260040180806020018281038252603481526020018061101f6034913960400191505060405180910390fd5b6001600360003373ffffffffffffffffffffffffffffffffffffffff1673ffffffffffffffffffffffffffffffffffffffff168152602001908152602001600020600082825403925050819055506001600360003073ffffffffffffffffffffffffffffffffffffffff1673ffffffffffffffffffffffffffffffffffffffff168152602001908152602001600020600082825401925050819055506001600460003373ffffffffffffffffffffffffffffffffffffffff1673ffffffffffffffffffffffffffffffffffffffff16815260200190815260200160002060006101000a81548160ff021916908315150217905550600560003373ffffffffffffffffffffffffffffffffffffffff1673ffffffffffffffffffffffffffffffffffffffff16815260200190815260200160002060000160009054906101000a900460ff1615610e3a57600160036000600560003373ffffffffffffffffffffffffffffffffffffffff1673ffffffffffffffffffffffffffffffffffffffff16815260200190815260200160002060000160019054906101000a900473ffffffffffffffffffffffffffffffffffffffff1673ffffffffffffffffffffffffffffffffffffffff1673ffffffffffffffffffffffffffffffffffffffff168152602001908152602001600020600082825401925050819055506000600560003373ffffffffffffffffffffffffffffffffffffffff1673ffffffffffffffffffffffffffffffffffffffff16815260200190815260200160002060000160006101000a81548160ff0219169083151502179055505b3373ffffffffffffffffffffffffffffffffffffffff167fed94e6f8f334678b3265725f268ecd9032016d6050efeb9e673a561ffbfb0a7660405160405180910390a2565b6000600260009054906101000a900460ff1660ff16905090565b600460008273ffffffffffffffffffffffffffffffffffffffff1673ffffffffffffffffffffffffffffffffffffffff16815260200190815260200160002060009054906101000a900460ff161561101b576000600460008373ffffffffffffffffffffffffffffffffffffffff1673ffffffffffffffffffffffffffffffffffffffff16815260200190815260200160002060006101000a81548160ff02191690831515021790555060405180604001604052806001151581526020013373ffffffffffffffffffffffffffffffffffffffff16815250600560008373ffffffffffffffffffffffffffffffffffffffff1673ffffffffffffffffffffffffffffffffffffffff16815260200190815260200160002060008201518160000160006101000a81548160ff02191690831515021790555060208201518160000160016101000a81548173ffffffffffffffffffffffffffffffffffffffff021916908373ffffffffffffffffffffffffffffffffffffffff1602179055509050505b5056fe4f6e6c79207573657220776974682062616c616e63652067726561746572207468616e20302063616e2063616c6c20746869732ea265627a7a7231582036f334e86d52c1804e3fd00220515c1ef2aa8e88cd824addd4eae3d1659fc22f64736f6c63430005100032",
  "source": "// SPDX-License-Identifier: GPL-3.0\npragma solidity >=0.4.22 <0.9.0;\n\ncontract BatchedPermissionContract {\n    struct ApprovalAwait {\n        bool awaiting;\n        address resolverAddress;\n    }\n\n    string private name;\n    string private symbol;\n    uint8 private decimals;\n    address owner;\n\n    uint256 private constant PRICE_PER_TOKEN = 1 wei; // 1 kB\n    uint256 private constant MAX_ALLOWED_OWNERSHIP = 500000000; // as 500 GB of data\n\n     /* maping addresses to the balances associated with them */\n    mapping(address => uint256) userBalance;\n\n    mapping(address => bool) awaitingPermission;\n\n    mapping(address => ApprovalAwait) awaitingApproved;\n\n     constructor() public {\n        name = \"BatchedPermissionCOntract\";\n        symbol = \"AuthS\";\n        decimals = 0;\n        owner = msg.sender;\n    }\n\n    modifier onlyOwner() {\n        require(\n            msg.sender == owner,\n            \"Only contract owner can call this.\"\n        );\n        _;\n    }\n\n    modifier userWithBalance() {\n        require(\n            userBalance[msg.sender] > 0,\n            \"Only user with balance greater than 0 can call this.\"\n        );\n        _;\n    }\n\n    function getName() public view returns (string memory tokenName){\n        return name;\n    }\n\n    function getSymbol() public view returns (string memory tokenSymbol){\n        return symbol;\n    }\n\n    function getDecimals() public view returns (uint tokenDecimals){\n        return decimals;\n    }\n\n     function getContractbalance() public view returns (uint256 balance){\n        return userBalance[address(this)];\n    }\n\n    function getBalance() public view returns (uint256 balance){\n        return userBalance[msg.sender];\n    }\n\n    function askPermission() public userWithBalance {\n        userBalance[msg.sender] -= 1;\n        userBalance[address(this)] += 1;\n        awaitingPermission[msg.sender] = true;\n\n        if(awaitingApproved[msg.sender].awaiting){\n            userBalance[awaitingApproved[msg.sender].resolverAddress] += 1;\n            awaitingApproved[msg.sender].awaiting = false;\n        }\n\n        emit OrderCreated(msg.sender);\n    }\n\n    function permissionResolved(address _spender) public {\n        if(awaitingPermission[_spender]){\n            awaitingPermission[_spender] = false;\n            awaitingApproved[_spender] = ApprovalAwait(true, msg.sender);\n        }\n    }\n\n    function denyPermisson(address _spender) public {\n        if(awaitingPermission[_spender]){\n            userBalance[address(this)] -= 1;\n            userBalance[_spender] += 1;\n            awaitingPermission[_spender] = false;\n            awaitingApproved[_spender] = ApprovalAwait(false, msg.sender);\n            emit OrderDenied(_spender);\n        }\n    }\n\n    function buyTokens(uint numberOfTokens) external payable{\n        // buyer needs to sent some ether\n        require(msg.value > 0 && numberOfTokens > 0);\n\n        uint256 finalAmount = numberOfTokens;\n\n        if((userBalance[msg.sender] + numberOfTokens) > MAX_ALLOWED_OWNERSHIP){\n            finalAmount = MAX_ALLOWED_OWNERSHIP - userBalance[msg.sender];\n        }\n        uint256  finalPrice = finalAmount * PRICE_PER_TOKEN;\n\n        // amount of wei needs to be adequate to number of desired tokens\n        if(finalPrice <= msg.value){\n            if(msg.value - finalPrice > 0){\n                address(msg.sender).transfer(msg.value - finalPrice);\n            }\n            userBalance[msg.sender] += finalAmount;\n            emit BuySuccessful(msg.sender);\n            return;\n        }\n        emit BuyFailed(msg.sender);\n    }\n\n    function sellTokens(uint numberOfTokens) external payable{\n        require(numberOfTokens > 0);\n\n        uint256 finalAmount = numberOfTokens;\n\n        if(numberOfTokens > userBalance[msg.sender]){\n            finalAmount = userBalance[msg.sender];\n        }\n\n        if(finalAmount > 0){\n            uint256  finalPrice = finalAmount * PRICE_PER_TOKEN;\n\n            address(msg.sender).transfer(finalPrice);\n\n            userBalance[msg.sender] -= finalAmount;\n\n            emit SellSuccessful(msg.sender);\n            return;\n        }\n        emit SellFailed(msg.sender);\n    }\n\n    event OrderCreated(address indexed _spender);\n    event OrderWaitingForApproval(address indexed _resolver);\n    event OrderApproved(address indexed _spender);\n    event OrderDenied(address indexed _spender);\n    event BuySuccessful(address indexed _buyer);\n    event BuyFailed(address indexed _buyer);\n    event SellSuccessful(address indexed _buyer);\n    event SellFailed(address indexed _buyer);\n}\n",
  "sourcePath": "/Users/pavoltelepak/Diplomovka/blockchain/truffle/contracts/BatchedPermissionContract.sol",
  "compiler": {
    "name": "solc",
    "version": "0.5.16+commit.9c3226ce.Emscripten.clang"
  },
  "schemaVersion": "3.4.4",
  "updatedAt": "2022-02-23T17:35:58.185Z",
  "networkType": "ethereum",
  "devdoc": {
    "methods": {}
  },
  "userdoc": {
    "methods": {}
  }
}