{
  "contractName": "MultiLevelAuthContract",
  "abi": [
    {
      "inputs": [],
      "payable": false,
      "stateMutability": "nonpayable",
      "type": "constructor"
    },
    {
      "constant": true,
      "inputs": [],
      "name": "getName",
      "outputs": [
        {
          "internalType": "string",
          "name": "tokenName",
          "type": "string"
        }
      ],
      "payable": false,
      "stateMutability": "view",
      "type": "function"
    },
    {
      "constant": true,
      "inputs": [],
      "name": "getSymbol",
      "outputs": [
        {
          "internalType": "string",
          "name": "tokenSymbol",
          "type": "string"
        }
      ],
      "payable": false,
      "stateMutability": "view",
      "type": "function"
    },
    {
      "constant": true,
      "inputs": [
        {
          "internalType": "address",
          "name": "_nodeAddress",
          "type": "address"
        }
      ],
      "name": "getNodeAuthStatus",
      "outputs": [
        {
          "internalType": "bool",
          "name": "authentificated",
          "type": "bool"
        }
      ],
      "payable": false,
      "stateMutability": "view",
      "type": "function"
    },
    {
      "constant": false,
      "inputs": [
        {
          "internalType": "address",
          "name": "_nodeAddress",
          "type": "address"
        },
        {
          "internalType": "bool",
          "name": "activation",
          "type": "bool"
        }
      ],
      "name": "activateNode",
      "outputs": [],
      "payable": false,
      "stateMutability": "nonpayable",
      "type": "function"
    },
    {
      "constant": false,
      "inputs": [
        {
          "internalType": "address",
          "name": "_nodeAddress",
          "type": "address"
        }
      ],
      "name": "removeNode",
      "outputs": [],
      "payable": false,
      "stateMutability": "nonpayable",
      "type": "function"
    }
  ],
  "bytecode": "0x608060405234801561001057600080fd5b506040518060400160405280600e81526020017f4d756c74694c6576656c417574680000000000000000000000000000000000008152506000908051906020019061005c929190610106565b506040518060400160405280600381526020017f4d4c410000000000000000000000000000000000000000000000000000000000815250600190805190602001906100a8929190610106565b506001600260003373ffffffffffffffffffffffffffffffffffffffff1673ffffffffffffffffffffffffffffffffffffffff16815260200190815260200160002060006101000a81548160ff0219169083151502179055506101ab565b828054600181600116156101000203166002900490600052602060002090601f016020900481019282601f1061014757805160ff1916838001178555610175565b82800160010185558215610175579182015b82811115610174578251825591602001919060010190610159565b5b5090506101829190610186565b5090565b6101a891905b808211156101a457600081600090555060010161018c565b5090565b90565b610959806101ba6000396000f3fe608060405234801561001057600080fd5b50600436106100575760003560e01c8063150704011461005c57806317d7de7c146100df578063b2b99ec914610162578063e8f09841146101a6578063ebdeafc9146101f6575b600080fd5b610064610252565b6040518080602001828103825283818151815260200191508051906020019080838360005b838110156100a4578082015181840152602081019050610089565b50505050905090810190601f1680156100d15780820380516001836020036101000a031916815260200191505b509250505060405180910390f35b6100e76102f4565b6040518080602001828103825283818151815260200191508051906020019080838360005b8381101561012757808201518184015260208101905061010c565b50505050905090810190601f1680156101545780820380516001836020036101000a031916815260200191505b509250505060405180910390f35b6101a46004803603602081101561017857600080fd5b81019080803573ffffffffffffffffffffffffffffffffffffffff169060200190929190505050610396565b005b6101f4600480360360408110156101bc57600080fd5b81019080803573ffffffffffffffffffffffffffffffffffffffff169060200190929190803515159060200190929190505050610607565b005b6102386004803603602081101561020c57600080fd5b81019080803573ffffffffffffffffffffffffffffffffffffffff169060200190929190505050610884565b604051808215151515815260200191505060405180910390f35b606060018054600181600116156101000203166002900480601f0160208091040260200160405190810160405280929190818152602001828054600181600116156101000203166002900480156102ea5780601f106102bf576101008083540402835291602001916102ea565b820191906000526020600020905b8154815290600101906020018083116102cd57829003601f168201915b5050505050905090565b606060008054600181600116156101000203166002900480601f01602080910402602001604051908101604052809291908181526020018280546001816001161561010002031660029004801561038c5780601f106103615761010080835404028352916020019161038c565b820191906000526020600020905b81548152906001019060200180831161036f57829003601f168201915b5050505050905090565b600260003373ffffffffffffffffffffffffffffffffffffffff1673ffffffffffffffffffffffffffffffffffffffff16815260200190815260200160002060009054906101000a900460ff16610438576040517f08c379a00000000000000000000000000000000000000000000000000000000081526004018080602001828103825260228152602001806109036022913960400191505060405180910390fd5b8060011515600360003373ffffffffffffffffffffffffffffffffffffffff1673ffffffffffffffffffffffffffffffffffffffff16815260200190815260200160002060008373ffffffffffffffffffffffffffffffffffffffff1673ffffffffffffffffffffffffffffffffffffffff16815260200190815260200160002060009054906101000a900460ff1615151461051f576040517f08c379a00000000000000000000000000000000000000000000000000000000081526004018080602001828103825260288152602001806108db6028913960400191505060405180910390fd5b600260008373ffffffffffffffffffffffffffffffffffffffff1673ffffffffffffffffffffffffffffffffffffffff16815260200190815260200160002060006101000a81549060ff02191690556000600360003373ffffffffffffffffffffffffffffffffffffffff1673ffffffffffffffffffffffffffffffffffffffff16815260200190815260200160002060008473ffffffffffffffffffffffffffffffffffffffff1673ffffffffffffffffffffffffffffffffffffffff16815260200190815260200160002060006101000a81548160ff0219169083151502179055505050565b600260003373ffffffffffffffffffffffffffffffffffffffff1673ffffffffffffffffffffffffffffffffffffffff16815260200190815260200160002060009054906101000a900460ff166106a9576040517f08c379a00000000000000000000000000000000000000000000000000000000081526004018080602001828103825260228152602001806109036022913960400191505060405180910390fd5b806107955760011515600360003373ffffffffffffffffffffffffffffffffffffffff1673ffffffffffffffffffffffffffffffffffffffff16815260200190815260200160002060008473ffffffffffffffffffffffffffffffffffffffff1673ffffffffffffffffffffffffffffffffffffffff16815260200190815260200160002060009054906101000a900460ff16151514610794576040517f08c379a00000000000000000000000000000000000000000000000000000000081526004018080602001828103825260288152602001806108db6028913960400191505060405180910390fd5b5b80600260008473ffffffffffffffffffffffffffffffffffffffff1673ffffffffffffffffffffffffffffffffffffffff16815260200190815260200160002060006101000a81548160ff02191690831515021790555080600360003373ffffffffffffffffffffffffffffffffffffffff1673ffffffffffffffffffffffffffffffffffffffff16815260200190815260200160002060008473ffffffffffffffffffffffffffffffffffffffff1673ffffffffffffffffffffffffffffffffffffffff16815260200190815260200160002060006101000a81548160ff0219169083151502179055505050565b6000600260008373ffffffffffffffffffffffffffffffffffffffff1673ffffffffffffffffffffffffffffffffffffffff16815260200190815260200160002060009054906101000a900460ff16905091905056fe596f752063616e2064656163746976617465206f6e6c7920796f7572206368696c64206e6f6465214f6e6c7920636f6e7472616374206f776e65722063616e2063616c6c20746869732ea265627a7a72315820dd0a93bc2e854fba78f4021109795e34d4f101a2a609c1c83207bc710a152fe564736f6c63430005100032",
  "source": "// SPDX-License-Identifier: GPL-3.0\npragma solidity >=0.4.22 <0.9.0;\n\ncontract MultiLevelAuthContract {\n    string private name;\n    string private symbol;\n\n    struct Auth{\n        address parent;\n        bool authentificated;\n    }\n\n    /* maping addresses to the balances associated with them */\n    mapping(address => bool) nodes;\n\n    /* maping allowed amounts of tokens to specific addresses */\n    mapping(address => mapping (address => bool)) permissionMap;\n\n    constructor() public {\n        name = \"MultiLevelAuth\";\n        symbol = \"MLA\";\n        nodes[msg.sender] = true;\n    }\n\n    modifier onlyNode() {\n        require(\n            nodes[msg.sender],\n            \"Only contract owner can call this.\"\n        );\n        _;\n    }\n\n    modifier isChild(address _nodeAddress) {\n        require(\n            permissionMap[msg.sender][_nodeAddress] == true,\n            \"You can deactivate only your child node!\"\n        );\n        _;\n    }\n\n    function getName() public view returns (string memory tokenName){\n        return name;\n    }\n\n    function getSymbol() public view returns (string memory tokenSymbol){\n        return symbol;\n    }\n\n    function getNodeAuthStatus(address _nodeAddress) public view returns (bool authentificated) {\n        return nodes[_nodeAddress];\n    }\n\n    function activateNode(address _nodeAddress, bool activation) public onlyNode{\n        if(!activation){\n            require( permissionMap[msg.sender][_nodeAddress] == true, \"You can deactivate only your child node!\");\n        }\n        nodes[_nodeAddress] = activation;\n        permissionMap[msg.sender][_nodeAddress] = activation;\n    }\n\n    function removeNode(address _nodeAddress) public onlyNode isChild(_nodeAddress){\n        delete nodes[_nodeAddress];\n        permissionMap[msg.sender][_nodeAddress] = false;\n    }\n}\n",
  "sourcePath": "/Users/pavoltelepak/Diplomovka/blockchain/truffle/contracts/MultiLevelAuthContract.sol",
  "compiler": {
    "name": "solc",
    "version": "0.5.16+commit.9c3226ce.Emscripten.clang"
  },
  "schemaVersion": "3.4.4",
  "updatedAt": "2022-03-30T11:52:13.772Z",
  "networkType": "ethereum",
  "devdoc": {
    "methods": {}
  },
  "userdoc": {
    "methods": {}
  }
}