{
  "contractName": "StakeAllContract",
  "abi": [
    {
      "inputs": [],
      "payable": false,
      "stateMutability": "nonpayable",
      "type": "constructor"
    },
    {
      "anonymous": false,
      "inputs": [
        {
          "indexed": true,
          "internalType": "address",
          "name": "_buyer",
          "type": "address"
        }
      ],
      "name": "BuyFailed",
      "type": "event"
    },
    {
      "anonymous": false,
      "inputs": [
        {
          "indexed": true,
          "internalType": "address",
          "name": "_buyer",
          "type": "address"
        }
      ],
      "name": "BuySuccessful",
      "type": "event"
    },
    {
      "anonymous": false,
      "inputs": [
        {
          "indexed": true,
          "internalType": "address",
          "name": "_spender",
          "type": "address"
        }
      ],
      "name": "OrderAskedToDecline",
      "type": "event"
    },
    {
      "anonymous": false,
      "inputs": [
        {
          "indexed": true,
          "internalType": "address",
          "name": "_spender",
          "type": "address"
        }
      ],
      "name": "OrderCreated",
      "type": "event"
    },
    {
      "anonymous": false,
      "inputs": [
        {
          "indexed": true,
          "internalType": "address",
          "name": "_spender",
          "type": "address"
        }
      ],
      "name": "OrderDeclined",
      "type": "event"
    },
    {
      "anonymous": false,
      "inputs": [
        {
          "indexed": true,
          "internalType": "address",
          "name": "_spender",
          "type": "address"
        }
      ],
      "name": "PermissionApproved",
      "type": "event"
    },
    {
      "anonymous": false,
      "inputs": [
        {
          "indexed": true,
          "internalType": "address",
          "name": "_spender",
          "type": "address"
        }
      ],
      "name": "PermissionRemoved",
      "type": "event"
    },
    {
      "anonymous": false,
      "inputs": [
        {
          "indexed": true,
          "internalType": "address",
          "name": "_buyer",
          "type": "address"
        }
      ],
      "name": "SellFailed",
      "type": "event"
    },
    {
      "anonymous": false,
      "inputs": [
        {
          "indexed": true,
          "internalType": "address",
          "name": "_buyer",
          "type": "address"
        }
      ],
      "name": "SellSuccessful",
      "type": "event"
    },
    {
      "constant": true,
      "inputs": [],
      "name": "getName",
      "outputs": [
        {
          "internalType": "string",
          "name": "tokenName",
          "type": "string"
        }
      ],
      "payable": false,
      "stateMutability": "view",
      "type": "function"
    },
    {
      "constant": true,
      "inputs": [],
      "name": "getSymbol",
      "outputs": [
        {
          "internalType": "string",
          "name": "tokenSymbol",
          "type": "string"
        }
      ],
      "payable": false,
      "stateMutability": "view",
      "type": "function"
    },
    {
      "constant": true,
      "inputs": [],
      "name": "getDecimals",
      "outputs": [
        {
          "internalType": "uint256",
          "name": "tokenDecimals",
          "type": "uint256"
        }
      ],
      "payable": false,
      "stateMutability": "view",
      "type": "function"
    },
    {
      "constant": true,
      "inputs": [],
      "name": "getContractbalance",
      "outputs": [
        {
          "internalType": "uint256",
          "name": "balance",
          "type": "uint256"
        }
      ],
      "payable": false,
      "stateMutability": "view",
      "type": "function"
    },
    {
      "constant": true,
      "inputs": [],
      "name": "getBalance",
      "outputs": [
        {
          "internalType": "uint256",
          "name": "balance",
          "type": "uint256"
        }
      ],
      "payable": false,
      "stateMutability": "view",
      "type": "function"
    },
    {
      "constant": true,
      "inputs": [
        {
          "internalType": "address",
          "name": "_userAddress",
          "type": "address"
        }
      ],
      "name": "getUserStatus",
      "outputs": [
        {
          "internalType": "enum StakeAllContract.Status",
          "name": "status",
          "type": "uint8"
        }
      ],
      "payable": false,
      "stateMutability": "view",
      "type": "function"
    },
    {
      "constant": false,
      "inputs": [
        {
          "internalType": "address",
          "name": "_baseStationAddress",
          "type": "address"
        }
      ],
      "name": "askPermission",
      "outputs": [],
      "payable": false,
      "stateMutability": "nonpayable",
      "type": "function"
    },
    {
      "constant": false,
      "inputs": [],
      "name": "askPermissionRemoval",
      "outputs": [],
      "payable": false,
      "stateMutability": "nonpayable",
      "type": "function"
    },
    {
      "constant": false,
      "inputs": [
        {
          "internalType": "address",
          "name": "_userAddress",
          "type": "address"
        }
      ],
      "name": "approve",
      "outputs": [],
      "payable": false,
      "stateMutability": "nonpayable",
      "type": "function"
    },
    {
      "constant": false,
      "inputs": [
        {
          "internalType": "address",
          "name": "_userAddress",
          "type": "address"
        }
      ],
      "name": "decline",
      "outputs": [],
      "payable": false,
      "stateMutability": "nonpayable",
      "type": "function"
    },
    {
      "constant": false,
      "inputs": [
        {
          "internalType": "address",
          "name": "_userAddress",
          "type": "address"
        },
        {
          "internalType": "uint256",
          "name": "_amount",
          "type": "uint256"
        }
      ],
      "name": "removePermission",
      "outputs": [],
      "payable": false,
      "stateMutability": "nonpayable",
      "type": "function"
    },
    {
      "constant": false,
      "inputs": [
        {
          "internalType": "uint256",
          "name": "numberOfTokens",
          "type": "uint256"
        }
      ],
      "name": "buyTokens",
      "outputs": [],
      "payable": true,
      "stateMutability": "payable",
      "type": "function"
    },
    {
      "constant": false,
      "inputs": [
        {
          "internalType": "uint256",
          "name": "numberOfTokens",
          "type": "uint256"
        }
      ],
      "name": "sellTokens",
      "outputs": [],
      "payable": true,
      "stateMutability": "payable",
      "type": "function"
    }
  ],
  "bytecode": "0x60806040523480156200001157600080fd5b506040518060400160405280601081526020017f5374616b65416c6c436f6e747261637400000000000000000000000000000000815250600090805190602001906200005f929190620000d0565b506040518060400160405280600381526020017f534143000000000000000000000000000000000000000000000000000000000081525060019080519060200190620000ad929190620000d0565b506000600260006101000a81548160ff021916908360ff1602179055506200017f565b828054600181600116156101000203166002900490600052602060002090601f016020900481019282601f106200011357805160ff191683800117855562000144565b8280016001018555821562000144579182015b828111156200014357825182559160200191906001019062000126565b5b50905062000153919062000157565b5090565b6200017c91905b80821115620001785760008160009055506001016200015e565b5090565b90565b611ef8806200018f6000396000f3fe6080604052600436106100c25760003560e01c80633610724e1161007f578063daea85c511610059578063daea85c514610352578063ea0d5dcd146103a3578063ecedb31e14610416578063f0141d8414610471576100c2565b80633610724e146102df5780636c11bcd31461030d578063b81d08ea1461033b576100c2565b80630f44de1a146100c757806310e29cf91461011857806312065fe014610169578063150704011461019457806317d7de7c1461022457806334097bc0146102b4575b600080fd5b3480156100d357600080fd5b50610116600480360360208110156100ea57600080fd5b81019080803573ffffffffffffffffffffffffffffffffffffffff16906020019092919050505061049c565b005b34801561012457600080fd5b506101676004803603602081101561013b57600080fd5b81019080803573ffffffffffffffffffffffffffffffffffffffff169060200190929190505050610900565b005b34801561017557600080fd5b5061017e610cd7565b6040518082815260200191505060405180910390f35b3480156101a057600080fd5b506101a9610d1e565b6040518080602001828103825283818151815260200191508051906020019080838360005b838110156101e95780820151818401526020810190506101ce565b50505050905090810190601f1680156102165780820380516001836020036101000a031916815260200191505b509250505060405180910390f35b34801561023057600080fd5b50610239610dc0565b6040518080602001828103825283818151815260200191508051906020019080838360005b8381101561027957808201518184015260208101905061025e565b50505050905090810190601f1680156102a65780820380516001836020036101000a031916815260200191505b509250505060405180910390f35b3480156102c057600080fd5b506102c9610e62565b6040518082815260200191505060405180910390f35b61030b600480360360208110156102f557600080fd5b8101908080359060200190929190505050610ea9565b005b6103396004803603602081101561032357600080fd5b810190808035906020019092919050505061109a565b005b34801561034757600080fd5b5061035061126d565b005b34801561035e57600080fd5b506103a16004803603602081101561037557600080fd5b81019080803573ffffffffffffffffffffffffffffffffffffffff1690602001909291905050506115ec565b005b3480156103af57600080fd5b506103f2600480360360208110156103c657600080fd5b81019080803573ffffffffffffffffffffffffffffffffffffffff169060200190929190505050611814565b6040518082600281111561040257fe5b60ff16815260200191505060405180910390f35b34801561042257600080fd5b5061046f6004803603604081101561043957600080fd5b81019080803573ffffffffffffffffffffffffffffffffffffffff1690602001909291908035906020019092919050505061186a565b005b34801561047d57600080fd5b50610486611d48565b6040518082815260200191505060405180910390f35b6000600360003373ffffffffffffffffffffffffffffffffffffffff1673ffffffffffffffffffffffffffffffffffffffff1681526020019081526020016000205411610534576040517f08c379a0000000000000000000000000000000000000000000000000000000008152600401808060200182810382526034815260200180611e676034913960400191505060405180910390fd5b6001600281111561054157fe5b600460003373ffffffffffffffffffffffffffffffffffffffff1673ffffffffffffffffffffffffffffffffffffffff16815260200190815260200160002060009054906101000a900460ff16600281111561059957fe5b14156105f0576040517f08c379a000000000000000000000000000000000000000000000000000000000815260040180806020018281038252602c815260200180611d63602c913960400191505060405180910390fd5b6000600560003373ffffffffffffffffffffffffffffffffffffffff1673ffffffffffffffffffffffffffffffffffffffff168152602001908152602001600020600001541461068b576040517f08c379a0000000000000000000000000000000000000000000000000000000008152600401808060200182810382526034815260200180611d8f6034913960400191505060405180910390fd5b600360003373ffffffffffffffffffffffffffffffffffffffff1673ffffffffffffffffffffffffffffffffffffffff16815260200190815260200160002054600360003073ffffffffffffffffffffffffffffffffffffffff1673ffffffffffffffffffffffffffffffffffffffff168152602001908152602001600020600082825401925050819055506040518060400160405280600360003373ffffffffffffffffffffffffffffffffffffffff1673ffffffffffffffffffffffffffffffffffffffff1681526020019081526020016000205481526020018273ffffffffffffffffffffffffffffffffffffffff16815250600560003373ffffffffffffffffffffffffffffffffffffffff1673ffffffffffffffffffffffffffffffffffffffff1681526020019081526020016000206000820151816000015560208201518160010160006101000a81548173ffffffffffffffffffffffffffffffffffffffff021916908373ffffffffffffffffffffffffffffffffffffffff1602179055509050506000600360003373ffffffffffffffffffffffffffffffffffffffff1673ffffffffffffffffffffffffffffffffffffffff168152602001908152602001600020819055506001600460003373ffffffffffffffffffffffffffffffffffffffff1673ffffffffffffffffffffffffffffffffffffffff16815260200190815260200160002060006101000a81548160ff021916908360028111156108b557fe5b02179055503373ffffffffffffffffffffffffffffffffffffffff167fed94e6f8f334678b3265725f268ecd9032016d6050efeb9e673a561ffbfb0a7660405160405180910390a250565b3373ffffffffffffffffffffffffffffffffffffffff16600560008373ffffffffffffffffffffffffffffffffffffffff1673ffffffffffffffffffffffffffffffffffffffff16815260200190815260200160002060010160009054906101000a900473ffffffffffffffffffffffffffffffffffffffff1673ffffffffffffffffffffffffffffffffffffffff16146109e6576040517f08c379a000000000000000000000000000000000000000000000000000000000815260040180806020018281038252604b815260200180611dc3604b913960600191505060405180910390fd5b600160028111156109f357fe5b600460008373ffffffffffffffffffffffffffffffffffffffff1673ffffffffffffffffffffffffffffffffffffffff16815260200190815260200160002060009054906101000a900460ff166002811115610a4b57fe5b14610aa1576040517f08c379a0000000000000000000000000000000000000000000000000000000008152600401808060200182810382526029815260200180611e9b6029913960400191505060405180910390fd5b600560008273ffffffffffffffffffffffffffffffffffffffff1673ffffffffffffffffffffffffffffffffffffffff16815260200190815260200160002060000154600360003073ffffffffffffffffffffffffffffffffffffffff1673ffffffffffffffffffffffffffffffffffffffff16815260200190815260200160002060008282540392505081905550600560008273ffffffffffffffffffffffffffffffffffffffff1673ffffffffffffffffffffffffffffffffffffffff16815260200190815260200160002060000154600360008373ffffffffffffffffffffffffffffffffffffffff1673ffffffffffffffffffffffffffffffffffffffff16815260200190815260200160002060008282540192505081905550600560008273ffffffffffffffffffffffffffffffffffffffff1673ffffffffffffffffffffffffffffffffffffffff1681526020019081526020016000206000808201600090556001820160006101000a81549073ffffffffffffffffffffffffffffffffffffffff021916905550506000600460008373ffffffffffffffffffffffffffffffffffffffff1673ffffffffffffffffffffffffffffffffffffffff16815260200190815260200160002060006101000a81548160ff02191690836002811115610c8c57fe5b02179055508073ffffffffffffffffffffffffffffffffffffffff167fe491afb97f25b99674040daa817e0ad9e05202ff011d540222918fbdbe13e8b860405160405180910390a250565b6000600360003373ffffffffffffffffffffffffffffffffffffffff1673ffffffffffffffffffffffffffffffffffffffff16815260200190815260200160002054905090565b606060018054600181600116156101000203166002900480601f016020809104026020016040519081016040528092919081815260200182805460018160011615610100020316600290048015610db65780601f10610d8b57610100808354040283529160200191610db6565b820191906000526020600020905b815481529060010190602001808311610d9957829003601f168201915b5050505050905090565b606060008054600181600116156101000203166002900480601f016020809104026020016040519081016040528092919081815260200182805460018160011615610100020316600290048015610e585780601f10610e2d57610100808354040283529160200191610e58565b820191906000526020600020905b815481529060010190602001808311610e3b57829003601f168201915b5050505050905090565b6000600360003073ffffffffffffffffffffffffffffffffffffffff1673ffffffffffffffffffffffffffffffffffffffff16815260200190815260200160002054905090565b600034118015610eb95750600081115b610ec257600080fd5b6000819050631dcd650082600360003373ffffffffffffffffffffffffffffffffffffffff1673ffffffffffffffffffffffffffffffffffffffff16815260200190815260200160002054011115610f5d57600360003373ffffffffffffffffffffffffffffffffffffffff1673ffffffffffffffffffffffffffffffffffffffff16815260200190815260200160002054631dcd65000390505b60006001820290503481116110525760008134031115610fc1573373ffffffffffffffffffffffffffffffffffffffff166108fc8234039081150290604051600060405180830381858888f19350505050158015610fbf573d6000803e3d6000fd5b505b81600360003373ffffffffffffffffffffffffffffffffffffffff1673ffffffffffffffffffffffffffffffffffffffff168152602001908152602001600020600082825401925050819055503373ffffffffffffffffffffffffffffffffffffffff167fc3cf9281f9f7a33a45d6cf4d04cc374ac2fbc0c812bbfeb97845dfaed96aba6160405160405180910390a25b3373ffffffffffffffffffffffffffffffffffffffff167fb16ad23a3ce24a6622d929ea1db29f1b78de6b8462f5d55deec0982e5a70064660405160405180910390a2505050565b600081116110a757600080fd5b6000819050600360003373ffffffffffffffffffffffffffffffffffffffff1673ffffffffffffffffffffffffffffffffffffffff1681526020019081526020016000205482111561113657600360003373ffffffffffffffffffffffffffffffffffffffff1673ffffffffffffffffffffffffffffffffffffffff1681526020019081526020016000205490505b60008111156112255760006001820290503373ffffffffffffffffffffffffffffffffffffffff166108fc829081150290604051600060405180830381858888f1935050505015801561118d573d6000803e3d6000fd5b5081600360003373ffffffffffffffffffffffffffffffffffffffff1673ffffffffffffffffffffffffffffffffffffffff168152602001908152602001600020600082825403925050819055503373ffffffffffffffffffffffffffffffffffffffff167f6a185ab31023a36adc1520fb20ef3518c4341996f4d09a41e6dce5b0d9794b6660405160405180910390a2505061126a565b3373ffffffffffffffffffffffffffffffffffffffff167f9bc4395a81d9bd3ebff5bd1a2957a5296e6c5fbd33b4b261ca40f4ad39d7367a60405160405180910390a2505b50565b6000600281111561127a57fe5b600460003373ffffffffffffffffffffffffffffffffffffffff1673ffffffffffffffffffffffffffffffffffffffff16815260200190815260200160002060009054906101000a900460ff1660028111156112d257fe5b1415611346576040517f08c379a00000000000000000000000000000000000000000000000000000000081526004018080602001828103825260158152602001807f5573657220697320756e617574686f72697a656421000000000000000000000081525060200191505060405180910390fd5b6001600281111561135357fe5b600460003373ffffffffffffffffffffffffffffffffffffffff1673ffffffffffffffffffffffffffffffffffffffff16815260200190815260200160002060009054906101000a900460ff1660028111156113ab57fe5b14156115a657600560003373ffffffffffffffffffffffffffffffffffffffff1673ffffffffffffffffffffffffffffffffffffffff16815260200190815260200160002060000154600360003073ffffffffffffffffffffffffffffffffffffffff1673ffffffffffffffffffffffffffffffffffffffff16815260200190815260200160002060008282540392505081905550600560003373ffffffffffffffffffffffffffffffffffffffff1673ffffffffffffffffffffffffffffffffffffffff16815260200190815260200160002060000154600360003373ffffffffffffffffffffffffffffffffffffffff1673ffffffffffffffffffffffffffffffffffffffff16815260200190815260200160002060008282540192505081905550600560003373ffffffffffffffffffffffffffffffffffffffff1673ffffffffffffffffffffffffffffffffffffffff1681526020019081526020016000206000808201600090556001820160006101000a81549073ffffffffffffffffffffffffffffffffffffffff021916905550506000600460003373ffffffffffffffffffffffffffffffffffffffff1673ffffffffffffffffffffffffffffffffffffffff16815260200190815260200160002060006101000a81548160ff0219169083600281111561159c57fe5b02179055506115ea565b3373ffffffffffffffffffffffffffffffffffffffff167fb35e6a3a75d686ee16b4786f03dc92d8eb6414f273d571cb40989d759a38772e60405160405180910390a25b565b3373ffffffffffffffffffffffffffffffffffffffff16600560008373ffffffffffffffffffffffffffffffffffffffff1673ffffffffffffffffffffffffffffffffffffffff16815260200190815260200160002060010160009054906101000a900473ffffffffffffffffffffffffffffffffffffffff1673ffffffffffffffffffffffffffffffffffffffff16146116d2576040517f08c379a000000000000000000000000000000000000000000000000000000000815260040180806020018281038252604b815260200180611dc3604b913960600191505060405180910390fd5b6000600560008373ffffffffffffffffffffffffffffffffffffffff1673ffffffffffffffffffffffffffffffffffffffff168152602001908152602001600020600001541161176d576040517f08c379a000000000000000000000000000000000000000000000000000000000815260040180806020018281038252602a815260200180611e3d602a913960400191505060405180910390fd5b6002600460008373ffffffffffffffffffffffffffffffffffffffff1673ffffffffffffffffffffffffffffffffffffffff16815260200190815260200160002060006101000a81548160ff021916908360028111156117c957fe5b02179055508073ffffffffffffffffffffffffffffffffffffffff167f4e5d624de6010da7673e75d1feade022c35bf0a7dcbb27050d3f525e2e026a8560405160405180910390a250565b6000600460008373ffffffffffffffffffffffffffffffffffffffff1673ffffffffffffffffffffffffffffffffffffffff16815260200190815260200160002060009054906101000a900460ff169050919050565b3373ffffffffffffffffffffffffffffffffffffffff16600560008473ffffffffffffffffffffffffffffffffffffffff1673ffffffffffffffffffffffffffffffffffffffff16815260200190815260200160002060010160009054906101000a900473ffffffffffffffffffffffffffffffffffffffff1673ffffffffffffffffffffffffffffffffffffffff1614611950576040517f08c379a000000000000000000000000000000000000000000000000000000000815260040180806020018281038252604b815260200180611dc3604b913960600191505060405180910390fd5b80600560008473ffffffffffffffffffffffffffffffffffffffff1673ffffffffffffffffffffffffffffffffffffffff168152602001908152602001600020600001541015611a08576040517f08c379a000000000000000000000000000000000000000000000000000000000815260040180806020018281038252601f8152602001807f416d6f756e74206578636565647320616d6f756e74206f66207374616b65210081525060200191505060405180910390fd5b600280811115611a1457fe5b600460008473ffffffffffffffffffffffffffffffffffffffff1673ffffffffffffffffffffffffffffffffffffffff16815260200190815260200160002060009054906101000a900460ff166002811115611a6c57fe5b14611ac2576040517f08c379a000000000000000000000000000000000000000000000000000000000815260040180806020018281038252602f815260200180611e0e602f913960400191505060405180910390fd5b600560008373ffffffffffffffffffffffffffffffffffffffff1673ffffffffffffffffffffffffffffffffffffffff16815260200190815260200160002060000154600360003073ffffffffffffffffffffffffffffffffffffffff1673ffffffffffffffffffffffffffffffffffffffff1681526020019081526020016000206000828254039250508190555080600360003373ffffffffffffffffffffffffffffffffffffffff1673ffffffffffffffffffffffffffffffffffffffff1681526020019081526020016000206000828254019250508190555080600560008473ffffffffffffffffffffffffffffffffffffffff1673ffffffffffffffffffffffffffffffffffffffff1681526020019081526020016000206000015403600360008473ffffffffffffffffffffffffffffffffffffffff1673ffffffffffffffffffffffffffffffffffffffff16815260200190815260200160002060008282540392505081905550600560008373ffffffffffffffffffffffffffffffffffffffff1673ffffffffffffffffffffffffffffffffffffffff1681526020019081526020016000206000808201600090556001820160006101000a81549073ffffffffffffffffffffffffffffffffffffffff021916905550506000600460008473ffffffffffffffffffffffffffffffffffffffff1673ffffffffffffffffffffffffffffffffffffffff16815260200190815260200160002060006101000a81548160ff02191690836002811115611cfc57fe5b02179055503373ffffffffffffffffffffffffffffffffffffffff167fe004b76fd67c7384775b2fdace54d5f1ef5d5c65b88ba9b62af22df1f620aaf160405160405180910390a25050565b6000600260009054906101000a900460ff1660ff1690509056fe4f6e6c7920757365722077686f206973206e6f74206177616974696e672063616e2063616c6c20746869732e4f6e6c7920757365722077686f206973206e6f74207374616b696e6720616e797468696e672063616e2063616c6c20746869732e5374616b696e67206973206e6f742073657420746f207468697320616464726573732e20596f7520617265206e6f7420616c6c6f77656420666f722074686973206f7065726174696f6e215065726d697373696f6e2063616e6e6f742062652074616b656e20746f20756e617574686f72697a656420757365724e6f207374616b696e6720616d6f756e74207365742e2043616e6e6f7420626520617070726f766564214f6e6c79207573657220776974682062616c616e63652067726561746572207468616e20302063616e2063616c6c20746869732e55736572206973206e6f74206177616974696e672c2063616e6e6f74206265206465636c696e656421a265627a7a72315820c6ed289fea7973b0e19996fe7186978f17a49806cdd772652b68c43410a482d264736f6c63430005100032",
  "source": "// SPDX-License-Identifier: GPL-3.0\npragma solidity >=0.4.22 <0.9.0;\n\ncontract StakeAllContract {\n    /*Struct Stake defines data type of storing stake amount and node address,\n      to which will be stake applied after successfull autentification*/\n    struct Stake{\n        uint256 amount;\n        address nodeAddress;\n    }\n\n    /*We define 3 types of user status*/\n    enum Status { UNAUTHORIZED, WAITING, AUTHORIZED }\n\n    string private name;\n    string private symbol;\n    uint8 private decimals;\n\n    uint256 private constant PRICE_PER_TOKEN = 1 wei; // 1 kB\n    uint256 private constant MAX_ALLOWED_OWNERSHIP = 500000000; // as 500 GB of data\n\n    /* storing user balances of tokens */\n    mapping(address => uint256) userBalance;\n\n    /* storing user statuses */\n    mapping(address => Status) userStatus;\n\n    /* storing information about staking */\n    mapping(address => Stake) stakeMap;\n\n    constructor() public {\n        name = \"StakeAllContract\";\n        symbol = \"SAC\";\n        decimals = 0;\n    }\n\n    modifier userWithBalance() {\n        require(userBalance[msg.sender] > 0, \"Only user with balance greater than 0 can call this.\");\n        _;\n    }\n\n    modifier userNotAwaiting() {\n        require(userStatus[msg.sender] != Status.WAITING, \"Only user who is not awaiting can call this.\");\n        _;\n    }\n\n    modifier userNotStaking() {\n        require(stakeMap[msg.sender].amount == 0, \"Only user who is not staking anything can call this.\");\n        _;\n    }\n\n    function getName() public view returns (string memory tokenName){\n        return name;\n    }\n\n    function getSymbol() public view returns (string memory tokenSymbol){\n        return symbol;\n    }\n\n    function getDecimals() public view returns (uint tokenDecimals){\n        return decimals;\n    }\n\n     function getContractbalance() public view returns (uint256 balance){\n        return userBalance[address(this)];\n    }\n\n    function getBalance() public view returns (uint256 balance){\n        return userBalance[msg.sender];\n    }\n\n    function getUserStatus(address _userAddress) public view returns (Status status){\n        return userStatus[_userAddress];\n    }\n\n    function askPermission(address _baseStationAddress) public userWithBalance userNotAwaiting userNotStaking{\n        userBalance[address(this)] += userBalance[msg.sender];\n        stakeMap[msg.sender] = Stake(userBalance[msg.sender], _baseStationAddress);\n        userBalance[msg.sender] = 0;\n        userStatus[msg.sender] = Status.WAITING;\n\n        emit OrderCreated(msg.sender);\n    }\n\n    function askPermissionRemoval() public {\n        require(userStatus[msg.sender] != Status.UNAUTHORIZED, \"User is unauthorized!\");\n        if(userStatus[msg.sender] == Status.WAITING){\n            userBalance[address(this)] -= stakeMap[msg.sender].amount;\n            userBalance[msg.sender] += stakeMap[msg.sender].amount;\n            delete stakeMap[msg.sender];\n            userStatus[msg.sender] = Status.UNAUTHORIZED;\n        } else {\n            emit OrderAskedToDecline(msg.sender);\n        }\n    }\n\n    function approve(address _userAddress) public {\n        require(stakeMap[_userAddress].nodeAddress == msg.sender, \"Staking is not set to this address. You are not allowed for this operation!\");\n        require(stakeMap[_userAddress].amount > 0, \"No staking amount set. Cannot be approved!\");\n\n        userStatus[_userAddress] = Status.AUTHORIZED;\n\n        emit PermissionApproved(_userAddress);\n    }\n\n    function decline(address _userAddress) public {\n        require(stakeMap[_userAddress].nodeAddress == msg.sender, \"Staking is not set to this address. You are not allowed for this operation!\");\n        require(userStatus[_userAddress] == Status.WAITING, \"User is not awaiting, cannot be declined!\");\n\n        userBalance[address(this)] -= stakeMap[_userAddress].amount;\n        userBalance[_userAddress] += stakeMap[_userAddress].amount;\n        delete stakeMap[_userAddress];\n        userStatus[_userAddress] = Status.UNAUTHORIZED;\n\n        emit OrderDeclined(_userAddress);\n    }\n\n    function removePermission(address _userAddress, uint256 _amount) public {\n        require(stakeMap[_userAddress].nodeAddress == msg.sender, \"Staking is not set to this address. You are not allowed for this operation!\");\n        require(stakeMap[_userAddress].amount >= _amount, \"Amount exceeds amount of stake!\");\n        require(userStatus[_userAddress] == Status.AUTHORIZED, \"Permission cannot be taken to unauthorized user\");\n\n        userBalance[address(this)] -= stakeMap[_userAddress].amount;\n        userBalance[msg.sender] += _amount;\n        userBalance[_userAddress] -= stakeMap[_userAddress].amount - _amount;\n\n        delete stakeMap[_userAddress];\n\n        userStatus[_userAddress] = Status.UNAUTHORIZED;\n\n        emit PermissionRemoved(msg.sender);\n    }\n\n    function buyTokens(uint numberOfTokens) external payable {\n        require(msg.value > 0 && numberOfTokens > 0);\n\n        uint256 finalAmount = numberOfTokens;\n\n        if((userBalance[msg.sender] + numberOfTokens) > MAX_ALLOWED_OWNERSHIP){\n            finalAmount = MAX_ALLOWED_OWNERSHIP - userBalance[msg.sender];\n        }\n        uint256  finalPrice = finalAmount * PRICE_PER_TOKEN;\n\n        if(finalPrice <= msg.value){\n            if(msg.value - finalPrice > 0){\n                address(msg.sender).transfer(msg.value - finalPrice);\n            }\n            userBalance[msg.sender] += finalAmount;\n            emit BuySuccessful(msg.sender);\n        }\n        emit BuyFailed(msg.sender);\n    }\n\n    function sellTokens(uint numberOfTokens) external payable {\n        require(numberOfTokens > 0);\n\n        uint256 finalAmount = numberOfTokens;\n\n        if(numberOfTokens > userBalance[msg.sender]){\n            finalAmount = userBalance[msg.sender];\n        }\n\n        if(finalAmount > 0){\n            uint256  finalPrice = finalAmount * PRICE_PER_TOKEN;\n\n            address(msg.sender).transfer(finalPrice);\n\n            userBalance[msg.sender] -= finalAmount;\n\n            emit SellSuccessful(msg.sender);\n            return;\n        }\n        emit SellFailed(msg.sender);\n    }\n\n    event OrderCreated(address indexed _spender);\n    event PermissionApproved(address indexed _spender);\n    event OrderDeclined(address indexed _spender);\n    event OrderAskedToDecline(address indexed _spender);\n    event PermissionRemoved(address indexed _spender);\n    event BuySuccessful(address indexed _buyer);\n    event BuyFailed(address indexed _buyer);\n    event SellSuccessful(address indexed _buyer);\n    event SellFailed(address indexed _buyer);\n}\n",
  "sourcePath": "/Users/pavoltelepak/Diplomovka/blockchain/truffle/contracts/StakeAllContract.sol",
  "compiler": {
    "name": "solc",
    "version": "0.5.16+commit.9c3226ce.Emscripten.clang"
  },
  "schemaVersion": "3.4.4",
  "updatedAt": "2022-02-23T17:35:58.178Z",
  "networkType": "ethereum",
  "devdoc": {
    "methods": {}
  },
  "userdoc": {
    "methods": {}
  }
}